{
  "_format": "hh-sol-artifact-1",
  "contractName": "ModaToken",
  "sourceName": "contracts/ModaToken.sol",
  "abi": [
    {
      "inputs": [
        {
          "components": [
            {
              "internalType": "string",
              "name": "name",
              "type": "string"
            },
            {
              "internalType": "string",
              "name": "symbol",
              "type": "string"
            },
            {
              "internalType": "uint256",
              "name": "totalSupply",
              "type": "uint256"
            }
          ],
          "internalType": "struct ModaToken.TokenConfig",
          "name": "_tokenCfg",
          "type": "tuple"
        },
        {
          "components": [
            {
              "internalType": "uint8",
              "name": "mode",
              "type": "uint8"
            },
            {
              "internalType": "address",
              "name": "usdtAddress",
              "type": "address"
            },
            {
              "internalType": "uint256",
              "name": "mintPrice",
              "type": "uint256"
            },
            {
              "internalType": "uint256",
              "name": "tokenPerMint",
              "type": "uint256"
            },
            {
              "internalType": "uint256",
              "name": "maxMintCount",
              "type": "uint256"
            },
            {
              "internalType": "uint256",
              "name": "userMintShare",
              "type": "uint256"
            },
            {
              "internalType": "uint256",
              "name": "lpFundShare",
              "type": "uint256"
            }
          ],
          "internalType": "struct ModaToken.MintConfig",
          "name": "_mintCfg",
          "type": "tuple"
        },
        {
          "components": [
            {
              "internalType": "uint8",
              "name": "mode",
              "type": "uint8"
            },
            {
              "internalType": "uint256",
              "name": "launchTime",
              "type": "uint256"
            }
          ],
          "internalType": "struct ModaToken.LaunchConfig",
          "name": "_launchCfg",
          "type": "tuple"
        },
        {
          "components": [
            {
              "internalType": "uint256",
              "name": "buyTax",
              "type": "uint256"
            },
            {
              "internalType": "uint256",
              "name": "sellTax",
              "type": "uint256"
            },
            {
              "internalType": "uint256",
              "name": "transferTax",
              "type": "uint256"
            },
            {
              "internalType": "uint256",
              "name": "marketingShare",
              "type": "uint256"
            },
            {
              "internalType": "uint256",
              "name": "burnShare",
              "type": "uint256"
            },
            {
              "internalType": "uint256",
              "name": "lpShare",
              "type": "uint256"
            },
            {
              "internalType": "uint256",
              "name": "dividendShare",
              "type": "uint256"
            }
          ],
          "internalType": "struct ModaToken.TaxConfig",
          "name": "_taxCfg",
          "type": "tuple"
        },
        {
          "internalType": "address",
          "name": "_marketingWallet",
          "type": "address"
        },
        {
          "internalType": "address",
          "name": "_router",
          "type": "address"
        }
      ],
      "stateMutability": "nonpayable",
      "type": "constructor"
    },
    {
      "inputs": [
        {
          "internalType": "address",
          "name": "spender",
          "type": "address"
        },
        {
          "internalType": "uint256",
          "name": "allowance",
          "type": "uint256"
        },
        {
          "internalType": "uint256",
          "name": "needed",
          "type": "uint256"
        }
      ],
      "name": "ERC20InsufficientAllowance",
      "type": "error"
    },
    {
      "inputs": [
        {
          "internalType": "address",
          "name": "sender",
          "type": "address"
        },
        {
          "internalType": "uint256",
          "name": "balance",
          "type": "uint256"
        },
        {
          "internalType": "uint256",
          "name": "needed",
          "type": "uint256"
        }
      ],
      "name": "ERC20InsufficientBalance",
      "type": "error"
    },
    {
      "inputs": [
        {
          "internalType": "address",
          "name": "approver",
          "type": "address"
        }
      ],
      "name": "ERC20InvalidApprover",
      "type": "error"
    },
    {
      "inputs": [
        {
          "internalType": "address",
          "name": "receiver",
          "type": "address"
        }
      ],
      "name": "ERC20InvalidReceiver",
      "type": "error"
    },
    {
      "inputs": [
        {
          "internalType": "address",
          "name": "sender",
          "type": "address"
        }
      ],
      "name": "ERC20InvalidSender",
      "type": "error"
    },
    {
      "inputs": [
        {
          "internalType": "address",
          "name": "spender",
          "type": "address"
        }
      ],
      "name": "ERC20InvalidSpender",
      "type": "error"
    },
    {
      "inputs": [],
      "name": "EnforcedPause",
      "type": "error"
    },
    {
      "inputs": [],
      "name": "ExpectedPause",
      "type": "error"
    },
    {
      "inputs": [
        {
          "internalType": "address",
          "name": "owner",
          "type": "address"
        }
      ],
      "name": "OwnableInvalidOwner",
      "type": "error"
    },
    {
      "inputs": [
        {
          "internalType": "address",
          "name": "account",
          "type": "address"
        }
      ],
      "name": "OwnableUnauthorizedAccount",
      "type": "error"
    },
    {
      "inputs": [],
      "name": "ReentrancyGuardReentrantCall",
      "type": "error"
    },
    {
      "anonymous": false,
      "inputs": [
        {
          "indexed": true,
          "internalType": "address",
          "name": "owner",
          "type": "address"
        },
        {
          "indexed": true,
          "internalType": "address",
          "name": "spender",
          "type": "address"
        },
        {
          "indexed": false,
          "internalType": "uint256",
          "name": "value",
          "type": "uint256"
        }
      ],
      "name": "Approval",
      "type": "event"
    },
    {
      "anonymous": false,
      "inputs": [
        {
          "indexed": true,
          "internalType": "address",
          "name": "account",
          "type": "address"
        },
        {
          "indexed": false,
          "internalType": "bool",
          "name": "status",
          "type": "bool"
        }
      ],
      "name": "BlacklistUpdated",
      "type": "event"
    },
    {
      "anonymous": false,
      "inputs": [
        {
          "indexed": false,
          "internalType": "bool",
          "name": "enabled",
          "type": "bool"
        },
        {
          "indexed": false,
          "internalType": "uint256",
          "name": "share",
          "type": "uint256"
        }
      ],
      "name": "DividendConfigUpdated",
      "type": "event"
    },
    {
      "anonymous": false,
      "inputs": [
        {
          "indexed": true,
          "internalType": "address",
          "name": "user",
          "type": "address"
        },
        {
          "indexed": false,
          "internalType": "uint256",
          "name": "amount",
          "type": "uint256"
        }
      ],
      "name": "DividendsClaimed",
      "type": "event"
    },
    {
      "anonymous": false,
      "inputs": [
        {
          "indexed": false,
          "internalType": "uint256",
          "name": "amount",
          "type": "uint256"
        }
      ],
      "name": "DividendsDeposited",
      "type": "event"
    },
    {
      "anonymous": false,
      "inputs": [
        {
          "indexed": true,
          "internalType": "address",
          "name": "token",
          "type": "address"
        },
        {
          "indexed": false,
          "internalType": "uint256",
          "name": "amount",
          "type": "uint256"
        }
      ],
      "name": "EmergencyWithdraw",
      "type": "event"
    },
    {
      "anonymous": false,
      "inputs": [
        {
          "indexed": false,
          "internalType": "uint256",
          "name": "tokenAmount",
          "type": "uint256"
        },
        {
          "indexed": false,
          "internalType": "uint256",
          "name": "baseAmount",
          "type": "uint256"
        },
        {
          "indexed": false,
          "internalType": "uint256",
          "name": "liquidity",
          "type": "uint256"
        }
      ],
      "name": "LiquidityAdded",
      "type": "event"
    },
    {
      "anonymous": false,
      "inputs": [
        {
          "indexed": true,
          "internalType": "address",
          "name": "user",
          "type": "address"
        },
        {
          "indexed": false,
          "internalType": "uint256",
          "name": "amount",
          "type": "uint256"
        },
        {
          "indexed": false,
          "internalType": "uint256",
          "name": "price",
          "type": "uint256"
        },
        {
          "indexed": false,
          "internalType": "uint256",
          "name": "lpAdded",
          "type": "uint256"
        }
      ],
      "name": "Minted",
      "type": "event"
    },
    {
      "anonymous": false,
      "inputs": [
        {
          "indexed": true,
          "internalType": "address",
          "name": "previousOwner",
          "type": "address"
        },
        {
          "indexed": true,
          "internalType": "address",
          "name": "newOwner",
          "type": "address"
        }
      ],
      "name": "OwnershipTransferred",
      "type": "event"
    },
    {
      "anonymous": false,
      "inputs": [
        {
          "indexed": false,
          "internalType": "address",
          "name": "account",
          "type": "address"
        }
      ],
      "name": "Paused",
      "type": "event"
    },
    {
      "anonymous": false,
      "inputs": [
        {
          "indexed": false,
          "internalType": "uint256",
          "name": "tokenAmount",
          "type": "uint256"
        },
        {
          "indexed": false,
          "internalType": "uint256",
          "name": "swappedAmount",
          "type": "uint256"
        }
      ],
      "name": "SwapBack",
      "type": "event"
    },
    {
      "anonymous": false,
      "inputs": [
        {
          "indexed": false,
          "internalType": "uint256",
          "name": "marketingShare",
          "type": "uint256"
        },
        {
          "indexed": false,
          "internalType": "uint256",
          "name": "burnShare",
          "type": "uint256"
        },
        {
          "indexed": false,
          "internalType": "uint256",
          "name": "lpShare",
          "type": "uint256"
        }
      ],
      "name": "TaxDistributionUpdated",
      "type": "event"
    },
    {
      "anonymous": false,
      "inputs": [
        {
          "indexed": false,
          "internalType": "uint256",
          "name": "buyTax",
          "type": "uint256"
        },
        {
          "indexed": false,
          "internalType": "uint256",
          "name": "sellTax",
          "type": "uint256"
        },
        {
          "indexed": false,
          "internalType": "uint256",
          "name": "transferTax",
          "type": "uint256"
        }
      ],
      "name": "TaxUpdated",
      "type": "event"
    },
    {
      "anonymous": false,
      "inputs": [
        {
          "indexed": false,
          "internalType": "uint256",
          "name": "timestamp",
          "type": "uint256"
        }
      ],
      "name": "TradingOpened",
      "type": "event"
    },
    {
      "anonymous": false,
      "inputs": [
        {
          "indexed": true,
          "internalType": "address",
          "name": "from",
          "type": "address"
        },
        {
          "indexed": true,
          "internalType": "address",
          "name": "to",
          "type": "address"
        },
        {
          "indexed": false,
          "internalType": "uint256",
          "name": "value",
          "type": "uint256"
        }
      ],
      "name": "Transfer",
      "type": "event"
    },
    {
      "anonymous": false,
      "inputs": [
        {
          "indexed": false,
          "internalType": "address",
          "name": "account",
          "type": "address"
        }
      ],
      "name": "Unpaused",
      "type": "event"
    },
    {
      "anonymous": false,
      "inputs": [
        {
          "indexed": false,
          "internalType": "bool",
          "name": "enabled",
          "type": "bool"
        }
      ],
      "name": "WhitelistEnabledUpdated",
      "type": "event"
    },
    {
      "anonymous": false,
      "inputs": [
        {
          "indexed": true,
          "internalType": "address",
          "name": "account",
          "type": "address"
        },
        {
          "indexed": false,
          "internalType": "bool",
          "name": "status",
          "type": "bool"
        }
      ],
      "name": "WhitelistUpdated",
      "type": "event"
    },
    {
      "inputs": [],
      "name": "DEAD_WALLET",
      "outputs": [
        {
          "internalType": "address",
          "name": "",
          "type": "address"
        }
      ],
      "stateMutability": "view",
      "type": "function"
    },
    {
      "inputs": [],
      "name": "accDividendPerToken",
      "outputs": [
        {
          "internalType": "int256",
          "name": "",
          "type": "int256"
        }
      ],
      "stateMutability": "view",
      "type": "function"
    },
    {
      "inputs": [
        {
          "internalType": "address",
          "name": "owner",
          "type": "address"
        },
        {
          "internalType": "address",
          "name": "spender",
          "type": "address"
        }
      ],
      "name": "allowance",
      "outputs": [
        {
          "internalType": "uint256",
          "name": "",
          "type": "uint256"
        }
      ],
      "stateMutability": "view",
      "type": "function"
    },
    {
      "inputs": [
        {
          "internalType": "address",
          "name": "spender",
          "type": "address"
        },
        {
          "internalType": "uint256",
          "name": "value",
          "type": "uint256"
        }
      ],
      "name": "approve",
      "outputs": [
        {
          "internalType": "bool",
          "name": "",
          "type": "bool"
        }
      ],
      "stateMutability": "nonpayable",
      "type": "function"
    },
    {
      "inputs": [
        {
          "internalType": "address",
          "name": "account",
          "type": "address"
        }
      ],
      "name": "balanceOf",
      "outputs": [
        {
          "internalType": "uint256",
          "name": "",
          "type": "uint256"
        }
      ],
      "stateMutability": "view",
      "type": "function"
    },
    {
      "inputs": [
        {
          "internalType": "address",
          "name": "",
          "type": "address"
        }
      ],
      "name": "blacklist",
      "outputs": [
        {
          "internalType": "bool",
          "name": "",
          "type": "bool"
        }
      ],
      "stateMutability": "view",
      "type": "function"
    },
    {
      "inputs": [],
      "name": "burnShare",
      "outputs": [
        {
          "internalType": "uint256",
          "name": "",
          "type": "uint256"
        }
      ],
      "stateMutability": "view",
      "type": "function"
    },
    {
      "inputs": [],
      "name": "buyTax",
      "outputs": [
        {
          "internalType": "uint256",
          "name": "",
          "type": "uint256"
        }
      ],
      "stateMutability": "view",
      "type": "function"
    },
    {
      "inputs": [],
      "name": "claimDividends",
      "outputs": [],
      "stateMutability": "nonpayable",
      "type": "function"
    },
    {
      "inputs": [],
      "name": "decimals",
      "outputs": [
        {
          "internalType": "uint8",
          "name": "",
          "type": "uint8"
        }
      ],
      "stateMutability": "view",
      "type": "function"
    },
    {
      "inputs": [],
      "name": "depositDividend",
      "outputs": [],
      "stateMutability": "payable",
      "type": "function"
    },
    {
      "inputs": [
        {
          "internalType": "uint256",
          "name": "amount",
          "type": "uint256"
        }
      ],
      "name": "depositDividendUSDT",
      "outputs": [],
      "stateMutability": "nonpayable",
      "type": "function"
    },
    {
      "inputs": [],
      "name": "dividendEnabled",
      "outputs": [
        {
          "internalType": "bool",
          "name": "",
          "type": "bool"
        }
      ],
      "stateMutability": "view",
      "type": "function"
    },
    {
      "inputs": [
        {
          "internalType": "address",
          "name": "",
          "type": "address"
        }
      ],
      "name": "dividendPerTokenPaid",
      "outputs": [
        {
          "internalType": "int256",
          "name": "",
          "type": "int256"
        }
      ],
      "stateMutability": "view",
      "type": "function"
    },
    {
      "inputs": [],
      "name": "dividendShare",
      "outputs": [
        {
          "internalType": "uint256",
          "name": "",
          "type": "uint256"
        }
      ],
      "stateMutability": "view",
      "type": "function"
    },
    {
      "inputs": [
        {
          "internalType": "address",
          "name": "",
          "type": "address"
        }
      ],
      "name": "dividends",
      "outputs": [
        {
          "internalType": "uint256",
          "name": "",
          "type": "uint256"
        }
      ],
      "stateMutability": "view",
      "type": "function"
    },
    {
      "inputs": [
        {
          "internalType": "uint256",
          "name": "bnbAmount",
          "type": "uint256"
        }
      ],
      "name": "forceAddLiquidityBNB",
      "outputs": [],
      "stateMutability": "nonpayable",
      "type": "function"
    },
    {
      "inputs": [
        {
          "internalType": "uint256",
          "name": "usdtAmount",
          "type": "uint256"
        }
      ],
      "name": "forceAddLiquidityUSDT",
      "outputs": [],
      "stateMutability": "nonpayable",
      "type": "function"
    },
    {
      "inputs": [],
      "name": "forceSwapBack",
      "outputs": [],
      "stateMutability": "nonpayable",
      "type": "function"
    },
    {
      "inputs": [],
      "name": "getContractBalances",
      "outputs": [
        {
          "internalType": "uint256",
          "name": "bnbBalance",
          "type": "uint256"
        },
        {
          "internalType": "uint256",
          "name": "tokenBalance",
          "type": "uint256"
        },
        {
          "internalType": "uint256",
          "name": "usdtBalance",
          "type": "uint256"
        }
      ],
      "stateMutability": "view",
      "type": "function"
    },
    {
      "inputs": [],
      "name": "getDividendInfo",
      "outputs": [
        {
          "internalType": "bool",
          "name": "enabled",
          "type": "bool"
        },
        {
          "internalType": "uint256",
          "name": "share",
          "type": "uint256"
        },
        {
          "internalType": "uint256",
          "name": "distributed",
          "type": "uint256"
        },
        {
          "internalType": "uint256",
          "name": "claimed",
          "type": "uint256"
        },
        {
          "internalType": "uint256",
          "name": "poolBalance",
          "type": "uint256"
        }
      ],
      "stateMutability": "view",
      "type": "function"
    },
    {
      "inputs": [],
      "name": "getMintInfo",
      "outputs": [
        {
          "internalType": "bool",
          "name": "enabled",
          "type": "bool"
        },
        {
          "internalType": "uint256",
          "name": "count",
          "type": "uint256"
        },
        {
          "internalType": "uint256",
          "name": "max",
          "type": "uint256"
        },
        {
          "internalType": "uint256",
          "name": "price",
          "type": "uint256"
        },
        {
          "internalType": "uint256",
          "name": "tokensPerMint_",
          "type": "uint256"
        },
        {
          "internalType": "uint256",
          "name": "userShare",
          "type": "uint256"
        },
        {
          "internalType": "uint8",
          "name": "mode",
          "type": "uint8"
        }
      ],
      "stateMutability": "view",
      "type": "function"
    },
    {
      "inputs": [],
      "name": "getTaxInfo",
      "outputs": [
        {
          "internalType": "uint256",
          "name": "buyTax_",
          "type": "uint256"
        },
        {
          "internalType": "uint256",
          "name": "sellTax_",
          "type": "uint256"
        },
        {
          "internalType": "uint256",
          "name": "transferTax_",
          "type": "uint256"
        },
        {
          "internalType": "uint256",
          "name": "marketingShare_",
          "type": "uint256"
        },
        {
          "internalType": "uint256",
          "name": "burnShare_",
          "type": "uint256"
        },
        {
          "internalType": "uint256",
          "name": "lpShare_",
          "type": "uint256"
        },
        {
          "internalType": "uint256",
          "name": "dividendShare_",
          "type": "uint256"
        }
      ],
      "stateMutability": "view",
      "type": "function"
    },
    {
      "inputs": [],
      "name": "getTradingStatus",
      "outputs": [
        {
          "internalType": "bool",
          "name": "tradingOpen_",
          "type": "bool"
        },
        {
          "internalType": "bool",
          "name": "mintEnabled_",
          "type": "bool"
        },
        {
          "internalType": "uint8",
          "name": "launchMode_",
          "type": "uint8"
        },
        {
          "internalType": "uint256",
          "name": "launchTime_",
          "type": "uint256"
        }
      ],
      "stateMutability": "view",
      "type": "function"
    },
    {
      "inputs": [
        {
          "internalType": "address",
          "name": "user",
          "type": "address"
        }
      ],
      "name": "getUserMintStatus",
      "outputs": [
        {
          "internalType": "bool",
          "name": "hasMinted_",
          "type": "bool"
        },
        {
          "internalType": "bool",
          "name": "isWhitelisted",
          "type": "bool"
        },
        {
          "internalType": "bool",
          "name": "isBlacklisted",
          "type": "bool"
        }
      ],
      "stateMutability": "view",
      "type": "function"
    },
    {
      "inputs": [
        {
          "internalType": "address",
          "name": "",
          "type": "address"
        }
      ],
      "name": "hasMinted",
      "outputs": [
        {
          "internalType": "bool",
          "name": "",
          "type": "bool"
        }
      ],
      "stateMutability": "view",
      "type": "function"
    },
    {
      "inputs": [],
      "name": "inSwap",
      "outputs": [
        {
          "internalType": "bool",
          "name": "",
          "type": "bool"
        }
      ],
      "stateMutability": "view",
      "type": "function"
    },
    {
      "inputs": [
        {
          "internalType": "address",
          "name": "",
          "type": "address"
        }
      ],
      "name": "isExcludedFromTax",
      "outputs": [
        {
          "internalType": "bool",
          "name": "",
          "type": "bool"
        }
      ],
      "stateMutability": "view",
      "type": "function"
    },
    {
      "inputs": [],
      "name": "launchMode",
      "outputs": [
        {
          "internalType": "enum ModaToken.LaunchMode",
          "name": "",
          "type": "uint8"
        }
      ],
      "stateMutability": "view",
      "type": "function"
    },
    {
      "inputs": [],
      "name": "launchTime",
      "outputs": [
        {
          "internalType": "uint256",
          "name": "",
          "type": "uint256"
        }
      ],
      "stateMutability": "view",
      "type": "function"
    },
    {
      "inputs": [],
      "name": "lpFundShare",
      "outputs": [
        {
          "internalType": "uint256",
          "name": "",
          "type": "uint256"
        }
      ],
      "stateMutability": "view",
      "type": "function"
    },
    {
      "inputs": [],
      "name": "lpShare",
      "outputs": [
        {
          "internalType": "uint256",
          "name": "",
          "type": "uint256"
        }
      ],
      "stateMutability": "view",
      "type": "function"
    },
    {
      "inputs": [],
      "name": "marketingShare",
      "outputs": [
        {
          "internalType": "uint256",
          "name": "",
          "type": "uint256"
        }
      ],
      "stateMutability": "view",
      "type": "function"
    },
    {
      "inputs": [],
      "name": "marketingWallet",
      "outputs": [
        {
          "internalType": "address",
          "name": "",
          "type": "address"
        }
      ],
      "stateMutability": "view",
      "type": "function"
    },
    {
      "inputs": [],
      "name": "maxMintCount",
      "outputs": [
        {
          "internalType": "uint256",
          "name": "",
          "type": "uint256"
        }
      ],
      "stateMutability": "view",
      "type": "function"
    },
    {
      "inputs": [],
      "name": "mintBNB",
      "outputs": [],
      "stateMutability": "payable",
      "type": "function"
    },
    {
      "inputs": [],
      "name": "mintEnabled",
      "outputs": [
        {
          "internalType": "bool",
          "name": "",
          "type": "bool"
        }
      ],
      "stateMutability": "view",
      "type": "function"
    },
    {
      "inputs": [],
      "name": "mintMode",
      "outputs": [
        {
          "internalType": "enum ModaToken.MintMode",
          "name": "",
          "type": "uint8"
        }
      ],
      "stateMutability": "view",
      "type": "function"
    },
    {
      "inputs": [],
      "name": "mintPrice",
      "outputs": [
        {
          "internalType": "uint256",
          "name": "",
          "type": "uint256"
        }
      ],
      "stateMutability": "view",
      "type": "function"
    },
    {
      "inputs": [],
      "name": "mintUSDT",
      "outputs": [],
      "stateMutability": "nonpayable",
      "type": "function"
    },
    {
      "inputs": [],
      "name": "mintedCount",
      "outputs": [
        {
          "internalType": "uint256",
          "name": "",
          "type": "uint256"
        }
      ],
      "stateMutability": "view",
      "type": "function"
    },
    {
      "inputs": [],
      "name": "name",
      "outputs": [
        {
          "internalType": "string",
          "name": "",
          "type": "string"
        }
      ],
      "stateMutability": "view",
      "type": "function"
    },
    {
      "inputs": [],
      "name": "openTrading",
      "outputs": [],
      "stateMutability": "nonpayable",
      "type": "function"
    },
    {
      "inputs": [],
      "name": "owner",
      "outputs": [
        {
          "internalType": "address",
          "name": "",
          "type": "address"
        }
      ],
      "stateMutability": "view",
      "type": "function"
    },
    {
      "inputs": [],
      "name": "pair",
      "outputs": [
        {
          "internalType": "address",
          "name": "",
          "type": "address"
        }
      ],
      "stateMutability": "view",
      "type": "function"
    },
    {
      "inputs": [],
      "name": "pause",
      "outputs": [],
      "stateMutability": "nonpayable",
      "type": "function"
    },
    {
      "inputs": [],
      "name": "paused",
      "outputs": [
        {
          "internalType": "bool",
          "name": "",
          "type": "bool"
        }
      ],
      "stateMutability": "view",
      "type": "function"
    },
    {
      "inputs": [
        {
          "internalType": "address",
          "name": "user",
          "type": "address"
        }
      ],
      "name": "pendingDividends",
      "outputs": [
        {
          "internalType": "uint256",
          "name": "",
          "type": "uint256"
        }
      ],
      "stateMutability": "view",
      "type": "function"
    },
    {
      "inputs": [],
      "name": "renounceOwnership",
      "outputs": [],
      "stateMutability": "nonpayable",
      "type": "function"
    },
    {
      "inputs": [],
      "name": "router",
      "outputs": [
        {
          "internalType": "address",
          "name": "",
          "type": "address"
        }
      ],
      "stateMutability": "view",
      "type": "function"
    },
    {
      "inputs": [],
      "name": "sellTax",
      "outputs": [
        {
          "internalType": "uint256",
          "name": "",
          "type": "uint256"
        }
      ],
      "stateMutability": "view",
      "type": "function"
    },
    {
      "inputs": [
        {
          "internalType": "address[]",
          "name": "accounts",
          "type": "address[]"
        },
        {
          "internalType": "bool",
          "name": "status",
          "type": "bool"
        }
      ],
      "name": "setBlacklist",
      "outputs": [],
      "stateMutability": "nonpayable",
      "type": "function"
    },
    {
      "inputs": [
        {
          "internalType": "uint256",
          "name": "_share",
          "type": "uint256"
        }
      ],
      "name": "setBurnShare",
      "outputs": [],
      "stateMutability": "nonpayable",
      "type": "function"
    },
    {
      "inputs": [
        {
          "internalType": "uint256",
          "name": "_tax",
          "type": "uint256"
        }
      ],
      "name": "setBuyTax",
      "outputs": [],
      "stateMutability": "nonpayable",
      "type": "function"
    },
    {
      "inputs": [
        {
          "internalType": "bool",
          "name": "_enabled",
          "type": "bool"
        }
      ],
      "name": "setDividendEnabled",
      "outputs": [],
      "stateMutability": "nonpayable",
      "type": "function"
    },
    {
      "inputs": [
        {
          "internalType": "uint256",
          "name": "_share",
          "type": "uint256"
        }
      ],
      "name": "setDividendShare",
      "outputs": [],
      "stateMutability": "nonpayable",
      "type": "function"
    },
    {
      "inputs": [
        {
          "internalType": "address",
          "name": "account",
          "type": "address"
        },
        {
          "internalType": "bool",
          "name": "excluded",
          "type": "bool"
        }
      ],
      "name": "setExcludedFromTax",
      "outputs": [],
      "stateMutability": "nonpayable",
      "type": "function"
    },
    {
      "inputs": [
        {
          "internalType": "uint256",
          "name": "_launchTime",
          "type": "uint256"
        }
      ],
      "name": "setLaunchTime",
      "outputs": [],
      "stateMutability": "nonpayable",
      "type": "function"
    },
    {
      "inputs": [
        {
          "internalType": "uint256",
          "name": "_share",
          "type": "uint256"
        }
      ],
      "name": "setLpFundShare",
      "outputs": [],
      "stateMutability": "nonpayable",
      "type": "function"
    },
    {
      "inputs": [
        {
          "internalType": "uint256",
          "name": "_share",
          "type": "uint256"
        }
      ],
      "name": "setLpShare",
      "outputs": [],
      "stateMutability": "nonpayable",
      "type": "function"
    },
    {
      "inputs": [
        {
          "internalType": "uint256",
          "name": "_share",
          "type": "uint256"
        }
      ],
      "name": "setMarketingShare",
      "outputs": [],
      "stateMutability": "nonpayable",
      "type": "function"
    },
    {
      "inputs": [
        {
          "internalType": "address",
          "name": "_wallet",
          "type": "address"
        }
      ],
      "name": "setMarketingWallet",
      "outputs": [],
      "stateMutability": "nonpayable",
      "type": "function"
    },
    {
      "inputs": [
        {
          "internalType": "uint256",
          "name": "_maxMintCount",
          "type": "uint256"
        }
      ],
      "name": "setMaxMintCount",
      "outputs": [],
      "stateMutability": "nonpayable",
      "type": "function"
    },
    {
      "inputs": [
        {
          "internalType": "bool",
          "name": "_enabled",
          "type": "bool"
        }
      ],
      "name": "setMintEnabled",
      "outputs": [],
      "stateMutability": "nonpayable",
      "type": "function"
    },
    {
      "inputs": [
        {
          "internalType": "uint256",
          "name": "_mintPrice",
          "type": "uint256"
        }
      ],
      "name": "setMintPrice",
      "outputs": [],
      "stateMutability": "nonpayable",
      "type": "function"
    },
    {
      "inputs": [
        {
          "internalType": "uint256",
          "name": "_tax",
          "type": "uint256"
        }
      ],
      "name": "setSellTax",
      "outputs": [],
      "stateMutability": "nonpayable",
      "type": "function"
    },
    {
      "inputs": [
        {
          "internalType": "bool",
          "name": "_enabled",
          "type": "bool"
        }
      ],
      "name": "setSwapEnabled",
      "outputs": [],
      "stateMutability": "nonpayable",
      "type": "function"
    },
    {
      "inputs": [
        {
          "internalType": "uint256",
          "name": "_threshold",
          "type": "uint256"
        }
      ],
      "name": "setSwapThreshold",
      "outputs": [],
      "stateMutability": "nonpayable",
      "type": "function"
    },
    {
      "inputs": [
        {
          "internalType": "uint256",
          "name": "_tokenPerMint",
          "type": "uint256"
        }
      ],
      "name": "setTokenPerMint",
      "outputs": [],
      "stateMutability": "nonpayable",
      "type": "function"
    },
    {
      "inputs": [
        {
          "internalType": "uint256",
          "name": "_tax",
          "type": "uint256"
        }
      ],
      "name": "setTransferTax",
      "outputs": [],
      "stateMutability": "nonpayable",
      "type": "function"
    },
    {
      "inputs": [
        {
          "internalType": "address",
          "name": "_usdt",
          "type": "address"
        }
      ],
      "name": "setUsdtAddress",
      "outputs": [],
      "stateMutability": "nonpayable",
      "type": "function"
    },
    {
      "inputs": [
        {
          "internalType": "uint256",
          "name": "_share",
          "type": "uint256"
        }
      ],
      "name": "setUserMintShare",
      "outputs": [],
      "stateMutability": "nonpayable",
      "type": "function"
    },
    {
      "inputs": [
        {
          "internalType": "address[]",
          "name": "accounts",
          "type": "address[]"
        },
        {
          "internalType": "bool",
          "name": "status",
          "type": "bool"
        }
      ],
      "name": "setWhitelist",
      "outputs": [],
      "stateMutability": "nonpayable",
      "type": "function"
    },
    {
      "inputs": [
        {
          "internalType": "bool",
          "name": "_enabled",
          "type": "bool"
        }
      ],
      "name": "setWhitelistEnabled",
      "outputs": [],
      "stateMutability": "nonpayable",
      "type": "function"
    },
    {
      "inputs": [],
      "name": "swapEnabled",
      "outputs": [
        {
          "internalType": "bool",
          "name": "",
          "type": "bool"
        }
      ],
      "stateMutability": "view",
      "type": "function"
    },
    {
      "inputs": [],
      "name": "swapThreshold",
      "outputs": [
        {
          "internalType": "uint256",
          "name": "",
          "type": "uint256"
        }
      ],
      "stateMutability": "view",
      "type": "function"
    },
    {
      "inputs": [],
      "name": "symbol",
      "outputs": [
        {
          "internalType": "string",
          "name": "",
          "type": "string"
        }
      ],
      "stateMutability": "view",
      "type": "function"
    },
    {
      "inputs": [],
      "name": "tokenPerMint",
      "outputs": [
        {
          "internalType": "uint256",
          "name": "",
          "type": "uint256"
        }
      ],
      "stateMutability": "view",
      "type": "function"
    },
    {
      "inputs": [],
      "name": "totalDividendsClaimed",
      "outputs": [
        {
          "internalType": "uint256",
          "name": "",
          "type": "uint256"
        }
      ],
      "stateMutability": "view",
      "type": "function"
    },
    {
      "inputs": [],
      "name": "totalDividendsDistributed",
      "outputs": [
        {
          "internalType": "uint256",
          "name": "",
          "type": "uint256"
        }
      ],
      "stateMutability": "view",
      "type": "function"
    },
    {
      "inputs": [],
      "name": "totalSupply",
      "outputs": [
        {
          "internalType": "uint256",
          "name": "",
          "type": "uint256"
        }
      ],
      "stateMutability": "view",
      "type": "function"
    },
    {
      "inputs": [],
      "name": "tradingOpen",
      "outputs": [
        {
          "internalType": "bool",
          "name": "",
          "type": "bool"
        }
      ],
      "stateMutability": "view",
      "type": "function"
    },
    {
      "inputs": [
        {
          "internalType": "address",
          "name": "to",
          "type": "address"
        },
        {
          "internalType": "uint256",
          "name": "value",
          "type": "uint256"
        }
      ],
      "name": "transfer",
      "outputs": [
        {
          "internalType": "bool",
          "name": "",
          "type": "bool"
        }
      ],
      "stateMutability": "nonpayable",
      "type": "function"
    },
    {
      "inputs": [
        {
          "internalType": "address",
          "name": "from",
          "type": "address"
        },
        {
          "internalType": "address",
          "name": "to",
          "type": "address"
        },
        {
          "internalType": "uint256",
          "name": "value",
          "type": "uint256"
        }
      ],
      "name": "transferFrom",
      "outputs": [
        {
          "internalType": "bool",
          "name": "",
          "type": "bool"
        }
      ],
      "stateMutability": "nonpayable",
      "type": "function"
    },
    {
      "inputs": [
        {
          "internalType": "address",
          "name": "newOwner",
          "type": "address"
        }
      ],
      "name": "transferOwnership",
      "outputs": [],
      "stateMutability": "nonpayable",
      "type": "function"
    },
    {
      "inputs": [],
      "name": "transferTax",
      "outputs": [
        {
          "internalType": "uint256",
          "name": "",
          "type": "uint256"
        }
      ],
      "stateMutability": "view",
      "type": "function"
    },
    {
      "inputs": [],
      "name": "unpause",
      "outputs": [],
      "stateMutability": "nonpayable",
      "type": "function"
    },
    {
      "inputs": [],
      "name": "usdtAddress",
      "outputs": [
        {
          "internalType": "address",
          "name": "",
          "type": "address"
        }
      ],
      "stateMutability": "view",
      "type": "function"
    },
    {
      "inputs": [],
      "name": "userMintShare",
      "outputs": [
        {
          "internalType": "uint256",
          "name": "",
          "type": "uint256"
        }
      ],
      "stateMutability": "view",
      "type": "function"
    },
    {
      "inputs": [
        {
          "internalType": "address",
          "name": "",
          "type": "address"
        }
      ],
      "name": "whitelist",
      "outputs": [
        {
          "internalType": "bool",
          "name": "",
          "type": "bool"
        }
      ],
      "stateMutability": "view",
      "type": "function"
    },
    {
      "inputs": [],
      "name": "whitelistEnabled",
      "outputs": [
        {
          "internalType": "bool",
          "name": "",
          "type": "bool"
        }
      ],
      "stateMutability": "view",
      "type": "function"
    },
    {
      "inputs": [
        {
          "internalType": "uint256",
          "name": "amount",
          "type": "uint256"
        }
      ],
      "name": "withdrawBNB",
      "outputs": [],
      "stateMutability": "nonpayable",
      "type": "function"
    },
    {
      "inputs": [
        {
          "internalType": "uint256",
          "name": "amount",
          "type": "uint256"
        }
      ],
      "name": "withdrawLP",
      "outputs": [],
      "stateMutability": "nonpayable",
      "type": "function"
    },
    {
      "inputs": [
        {
          "internalType": "address",
          "name": "token",
          "type": "address"
        },
        {
          "internalType": "uint256",
          "name": "amount",
          "type": "uint256"
        }
      ],
      "name": "withdrawToken",
      "outputs": [],
      "stateMutability": "nonpayable",
      "type": "function"
    },
    {
      "stateMutability": "payable",
      "type": "receive"
    }
  ],
  "bytecode": "0x60806040523480156200001157600080fd5b506040516200745738038062007457833981016040819052620000349162002186565b8551602087015133919060036200004c83826200231f565b5060046200005b82826200231f565b5050506001600160a01b0381166200008e57604051631e4fbdf760e01b8152600060048201526024015b60405180910390fd5b6200009981620006c4565b5060017f9b779b17422d0df92223018b32b4d1fa46e071723d6817e2486d003becc55f0055604086015160608601516080870151620000d9919062002401565b1115620001295760405162461bcd60e51b815260206004820152601860248201527f4d696e74206578636565647320746f74616c537570706c790000000000000000604482015260640162000085565b6127108560a001511115620001815760405162461bcd60e51b815260206004820152601560248201527f496e76616c696420757365724d696e7453686172650000000000000000000000604482015260640162000085565b6127108560c001511115620001d95760405162461bcd60e51b815260206004820152601360248201527f496e76616c6964206c7046756e64536861726500000000000000000000000000604482015260640162000085565b82516103e810801590620001f357506103e8836020015111155b80156200020657506103e8836040015111155b620002435760405162461bcd60e51b815260206004820152600c60248201526b0a8c2f040e8dede40d0d2ced60a31b604482015260640162000085565b8260c001518360a001518460800151856060015162000263919062002421565b6200026f919062002421565b6200027b919062002421565b61271014620002cd5760405162461bcd60e51b815260206004820152601960248201527f54617820646973747269627574696f6e20213d20313030303000000000000000604482015260640162000085565b845160ff16600103620003365760208501516001600160a01b0316620003365760405162461bcd60e51b815260206004820152601560248201527f5553445420616464726573732072657175697265640000000000000000000000604482015260640162000085565b6200034c3087604001516200071660201b60201c565b845160ff16600181111562000365576200036562002437565b6005805460ff60a81b1916600160a81b8360018111156200038a576200038a62002437565b02179055506020850151600680546001600160a01b0319166001600160a01b0390921691909117905560408501516007556060850151600855608085015160095560a0850151600a5560c0850151600b55835160ff166002811115620003f457620003f462002437565b6024805460ff1916600183600281111562000413576200041362002437565b0217905550602080850151602555835160145583015160155560408301516016556060830151601755608083015160185560a083015160195560c0830151601a819055156200047057601b805460ff60a01b1916600160a01b1790555b601b80546001600160a01b038085166001600160a01b0319928316179092556013805492841692909116821790556040805163c45a015560e01b8152905163c45a0155916004808201926020929091908290030181865afa158015620004da573d6000803e3d6000fd5b505050506040513d601f19601f820116820180604052508101906200050091906200244d565b6001600160a01b031663c9c6539630836001600160a01b031663ad5c46486040518163ffffffff1660e01b8152600401602060405180830381865afa1580156200054e573d6000803e3d6000fd5b505050506040513d601f19601f820116820180604052508101906200057491906200244d565b6040516001600160e01b031960e085901b1681526001600160a01b039283166004820152911660248201526044016020604051808303816000875af1158015620005c2573d6000803e3d6000fd5b505050506040513d601f19601f82011682018060405250810190620005e891906200244d565b60128054610100600160a81b0319166101006001600160a01b03938416810291909117825530600090815260236020526040808220805460ff19908116600190811790925533845282842080548216831790559454939093048516825280822080548516841790559385168152838120805484168317905561dead90527fcfb917c9f12a67b756fd43c7510cd55b6708bb9e7558ef1abd90c51590e0aada805483168217905560218054831682179055600c8054909216179055860151620006b4906103e89062002488565b60225550620026d8945050505050565b600580546001600160a01b038381166001600160a01b0319831681179093556040519116919082907f8be0079c531659141344cd1fd0a4f28419497f9722a3daafe3b4186f6b6457e090600090a35050565b6001600160a01b038216620007425760405163ec442f0560e01b81526000600482015260240162000085565b620007506000838362000754565b5050565b6001600160a01b038216620007ac5760405162461bcd60e51b815260206004820152601760248201527f45524332303a207472616e7366657220746f207a65726f000000000000000000604482015260640162000085565b60008111620007fe5760405162461bcd60e51b815260206004820152601460248201527f5472616e7366657220616d6f756e74207a65726f000000000000000000000000604482015260640162000085565b6001600160a01b038316158062000894576001600160a01b03841660009081526011602052604090205460ff161580156200085257506001600160a01b03831660009081526011602052604090205460ff16155b6200088e5760405162461bcd60e51b815260206004820152600b60248201526a109b1858dadb1a5cdd195960aa1b604482015260640162000085565b620008ed565b6001600160a01b03831660009081526011602052604090205460ff1615620008ed5760405162461bcd60e51b815260206004820152600b60248201526a109b1858dadb1a5cdd195960aa1b604482015260640162000085565b60125460ff161580156200091a5750600160245460ff16600281111562000918576200091862002437565b145b80156200092957506025544210155b1562000939576200093962000ca6565b60125460ff161580156200094b575080155b1562000a52576005546001600160a01b03858116911614806200097b57506005546001600160a01b038481169116145b806200098f57506001600160a01b03841630145b80620009a357506001600160a01b03831630145b80620009c157506012546001600160a01b0385811661010090920416145b80620009df57506012546001600160a01b0384811661010090920416145b80620009f857506013546001600160a01b038581169116145b8062000a1157506013546001600160a01b038481169116145b62000a525760405162461bcd60e51b815260206004820152601060248201526f2a3930b234b733903737ba1037b832b760811b604482015260640162000085565b808062000a7757506001600160a01b03841660009081526023602052604090205460ff165b8062000a9b57506001600160a01b03831660009081526023602052604090205460ff165b1562000ab45762000aae84848462000cf0565b50505050565b6012546000906001600160a01b038681166101009092041614801562000ae857506013546001600160a01b03858116911614155b801562000afe57506001600160a01b0384163014155b1562000b2b576127106014548462000b17919062002401565b62000b23919062002488565b905062000c48565b6012546001600160a01b038581166101009092041614801562000b5757506001600160a01b0385163014155b801562000b7257506013546001600160a01b03868116911614155b1562000be9576127106015548462000b8b919062002401565b62000b97919062002488565b60215490915060ff16801562000bb55750602154610100900460ff16155b801562000bd357506022543060009081526020819052604090205410155b1562000be35762000be362000e23565b62000c48565b6012546001600160a01b03868116610100909204161480159062000c2057506012546001600160a01b038581166101009092041614155b1562000c48576127106016548462000c39919062002401565b62000c45919062002488565b90505b801562000c5c5762000c5c85308362000cf0565b601b54600160a01b900460ff161562000c875762000c87858562000c8184876200249f565b62000f17565b62000c9f858562000c9984876200249f565b62000cf0565b5050505050565b6012805460ff191660011790556040517f03e843c4f24c03a4bec271685c791f96df5c653a0414bd6db8be7cd8148a8e339062000ce69042815260200190565b60405180910390a1565b6001600160a01b03831662000d1f57806002600082825462000d13919062002421565b9091555062000d939050565b6001600160a01b0383166000908152602081905260409020548181101562000d745760405163391434e360e21b81526001600160a01b0385166004820152602481018290526044810183905260640162000085565b6001600160a01b03841660009081526020819052604090209082900390555b6001600160a01b03821662000db15760028054829003905562000dd0565b6001600160a01b03821660009081526020819052604090208054820190555b816001600160a01b0316836001600160a01b03167fddf252ad1be2c89b69c2b068fc378daa952ba7f163c4a11628f55a4df523b3ef8360405162000e1691815260200190565b60405180910390a3505050565b6021805461ff00191661010017905530600090815260208190526040902054602254819081111562000e5457506022545b8060000362000e6557505062000f0a565b600060195460185460175462000e7c919062002421565b62000e88919062002421565b601b54909150600160a01b900460ff16801562000ea757506000601a54115b1562000ebf57601a5462000ebc908262002421565b90505b6000600554600160a81b900460ff16600181111562000ee25762000ee262002437565b0362000efa5762000ef4828262001145565b62000f06565b62000f0682826200145d565b5050505b6021805461ff0019169055565b601e546001600160a01b0384161580159062000f3c57506001600160a01b0384163014155b156200102d576001600160a01b0384166000908152601c602090815260408083205491839052822054670de0b6b3a76400009062000f7c908590620024b5565b62000f889190620024eb565b62000f9491906200251f565b9050600081131562000fd0576001600160a01b0385166000908152601d60205260408120805483929062000fca90849062002421565b90915550505b670de0b6b3a76400008262000ffa876001600160a01b031660009081526020819052604090205490565b620010069190620024b5565b620010129190620024eb565b6001600160a01b0386166000908152601c6020526040902055505b6001600160a01b038316158015906200104f57506001600160a01b0383163014155b1562000aae576001600160a01b0383166000908152601c602090815260408083205491839052822054670de0b6b3a7640000906200108f908590620024b5565b6200109b9190620024eb565b620010a791906200251f565b90506000811315620010e3576001600160a01b0384166000908152601d602052604081208054839290620010dd90849062002421565b90915550505b670de0b6b3a7640000826200110d866001600160a01b031660009081526020819052604090205490565b620011199190620024b5565b620011259190620024eb565b6001600160a01b0385166000908152601c60205260409020555050505050565b60408051600280825260608201835247926000929190602083019080368337019050509050308160008151811062001181576200118162002549565b6001600160a01b03928316602091820292909201810191909152601354604080516315ab88c960e31b81529051919093169263ad5c46489260048083019391928290030181865afa158015620011db573d6000803e3d6000fd5b505050506040513d601f19601f820116820180604052508101906200120191906200244d565b8160018151811062001217576200121762002549565b6001600160a01b0392831660209182029290920101526013546200123f9130911686620018d2565b60135460405163791ac94760e01b81526001600160a01b039091169063791ac947906200127a9087906000908690309042906004016200255f565b600060405180830381600087803b1580156200129557600080fd5b505af1158015620012aa573d6000803e3d6000fd5b5050505060008247620012be91906200249f565b905060008460175483620012d3919062002401565b620012df919062002488565b905060008560185484620012f4919062002401565b62001300919062002488565b601b54909150600090600160a01b900460ff1680156200132257506000601a54115b6200132f5760006200134c565b86601a548562001340919062002401565b6200134c919062002488565b9050600081836200135e86886200249f565b6200136a91906200249f565b6200137691906200249f565b90508315620013bc57601b546040516001600160a01b039091169085156108fc029086906000818181858888f19350505050158015620013ba573d6000803e3d6000fd5b505b8215620013f55760405161dead9084156108fc029085906000818181858888f19350505050158015620013f3573d6000803e3d6000fd5b505b811562001407576200140782620018e6565b8015620014195762001419816200198d565b604080518a8152602081018790527f05ab84b321981d7d9a13402e494604c50821bcb5f2400d128fa06cd6451113d4910160405180910390a1505050505050505050565b6006546040516370a0823160e01b81523060048201526000916001600160a01b0316906370a0823190602401602060405180830381865afa158015620014a7573d6000803e3d6000fd5b505050506040513d601f19601f82011682018060405250810190620014cd9190620025d2565b60408051600380825260808201909252919250600091906020820160608036833701905050905030816000815181106200150b576200150b62002549565b6001600160a01b03928316602091820292909201810191909152601354604080516315ab88c960e31b81529051919093169263ad5c46489260048083019391928290030181865afa15801562001565573d6000803e3d6000fd5b505050506040513d601f19601f820116820180604052508101906200158b91906200244d565b81600181518110620015a157620015a162002549565b6001600160a01b039283166020918202929092010152600654825191169082906002908110620015d557620015d562002549565b6001600160a01b039283166020918202929092010152601354620015fd9130911686620018d2565b601354604051635c11d79560e01b81526001600160a01b0390911690635c11d79590620016389087906000908690309042906004016200255f565b600060405180830381600087803b1580156200165357600080fd5b505af115801562001668573d6000803e3d6000fd5b50506006546040516370a0823160e01b8152306004820152600093508592506001600160a01b03909116906370a0823190602401602060405180830381865afa158015620016ba573d6000803e3d6000fd5b505050506040513d601f19601f82011682018060405250810190620016e09190620025d2565b620016ec91906200249f565b90506000846017548362001701919062002401565b6200170d919062002488565b90506000856018548462001722919062002401565b6200172e919062002488565b601b54909150600090600160a01b900460ff1680156200175057506000601a54115b6200175d5760006200177a565b86601a54856200176e919062002401565b6200177a919062002488565b9050600081836200178c86886200249f565b6200179891906200249f565b620017a491906200249f565b905083156200182b57600654601b5460405163a9059cbb60e01b81526001600160a01b0391821660048201526024810187905291169063a9059cbb906044016020604051808303816000875af115801562001803573d6000803e3d6000fd5b505050506040513d601f19601f82011682018060405250810190620018299190620025ec565b505b8215620018ae5760065460405163a9059cbb60e01b815261dead6004820152602481018590526001600160a01b039091169063a9059cbb906044016020604051808303816000875af115801562001886573d6000803e3d6000fd5b505050506040513d601f19601f82011682018060405250810190620018ac9190620025ec565b505b8115620018c057620018c082620018e6565b801562001419576200141981620019e0565b620018e1838383600162001a33565b505050565b6000620018f260025490565b90508060000362001901575050565b806200191683670de0b6b3a764000062002401565b62001922919062002488565b601e600082825462001935919062002610565b9250508190555081601f600082825462001950919062002421565b90915550506040518281527f868441bc0e3b50e598fc39ab9d370f6cbab5ee4b02c6b19e17eec2647415609c906020015b60405180910390a15050565b60006200199a8262001b0e565b30600090815260208190526040902054909150811115620019c75750306000908152602081905260409020545b80600003620019d4575050565b62000750818362001c78565b6000620019ed8262001b0e565b3060009081526020819052604090205490915081111562001a1a5750306000908152602081905260409020545b8060000362001a27575050565b62000750818362001d91565b6001600160a01b03841662001a5f5760405163e602df0560e01b81526000600482015260240162000085565b6001600160a01b03831662001a8b57604051634a1406b160e11b81526000600482015260240162000085565b6001600160a01b038085166000908152600160209081526040808320938716835292905220829055801562000aae57826001600160a01b0316846001600160a01b03167f8c5be1e5ebec7d5bd14f71427d1e84f3dd0314c0f7b2291e5b200ac8c7c3b9258460405162001b0091815260200190565b60405180910390a350505050565b6000806000601260019054906101000a90046001600160a01b03166001600160a01b0316630902f1ac6040518163ffffffff1660e01b8152600401606060405180830381865afa15801562001b67573d6000803e3d6000fd5b505050506040513d601f19601f8201168201806040525081019062001b8d919062002653565b50915091506000601260019054906101000a90046001600160a01b03166001600160a01b0316630dfe16816040518163ffffffff1660e01b8152600401602060405180830381865afa15801562001be8573d6000803e3d6000fd5b505050506040513d601f19601f8201168201806040525081019062001c0e91906200244d565b9050306001600160a01b0382160362001c5757816001600160701b0316836001600160701b03168662001c42919062002401565b62001c4e919062002488565b95945050505050565b826001600160701b0316826001600160701b03168662001c42919062002401565b60135462001c929030906001600160a01b031684620018d2565b6013546001600160a01b031663f305d71982308560008062001cbc6005546001600160a01b031690565b60405160e088901b6001600160e01b03191681526001600160a01b03958616600482015260248101949094526044840192909252606483015290911660848201524260a482015260c40160606040518083038185885af115801562001d25573d6000803e3d6000fd5b50505050506040513d601f19601f8201168201806040525081019062001d4c9190620026a9565b505060408051848152602081018490526000918101919091527fd7f28048575eead8851d024ead087913957dfb4fd1a02b4d1573f5352a5a2be3915060600162001981565b60135462001dab9030906001600160a01b031684620018d2565b60065460135460405163095ea7b360e01b81526001600160a01b0391821660048201526024810184905291169063095ea7b3906044016020604051808303816000875af115801562001e01573d6000803e3d6000fd5b505050506040513d601f19601f8201168201806040525081019062001e279190620025ec565b506013546006546001600160a01b039182169163e8e3370091309116858560008062001e5b6005546001600160a01b031690565b60405160e089901b6001600160e01b03191681526001600160a01b039788166004820152958716602487015260448601949094526064850192909252608484015260a483015290911660c48201524260e4820152610104016060604051808303816000875af115801562001ed3573d6000803e3d6000fd5b505050506040513d601f19601f8201168201806040525081019062001d4c9190620026a9565b634e487b7160e01b600052604160045260246000fd5b60405160e081016001600160401b038111828210171562001f345762001f3462001ef9565b60405290565b604051606081016001600160401b038111828210171562001f345762001f3462001ef9565b604051601f8201601f191681016001600160401b038111828210171562001f8a5762001f8a62001ef9565b604052919050565b600082601f83011262001fa457600080fd5b81516001600160401b0381111562001fc05762001fc062001ef9565b602062001fd6601f8301601f1916820162001f5f565b828152858284870101111562001feb57600080fd5b60005b838110156200200b57858101830151828201840152820162001fee565b506000928101909101919091529392505050565b805160ff811681146200203157600080fd5b919050565b80516001600160a01b03811681146200203157600080fd5b600060e082840312156200206157600080fd5b6200206b62001f0f565b905062002078826200201f565b8152620020886020830162002036565b602082015260408201516040820152606082015160608201526080820151608082015260a082015160a082015260c082015160c082015292915050565b600060408284031215620020d857600080fd5b604080519081016001600160401b0381118282101715620020fd57620020fd62001ef9565b6040529050806200210e836200201f565b8152602083015160208201525092915050565b600060e082840312156200213457600080fd5b6200213e62001f0f565b9050815181526020820151602082015260408201516040820152606082015160608201526080820151608082015260a082015160a082015260c082015160c082015292915050565b6000806000806000806102608789031215620021a157600080fd5b86516001600160401b0380821115620021b957600080fd5b908801906060828b031215620021ce57600080fd5b620021d862001f3a565b825182811115620021e857600080fd5b620021f68c82860162001f92565b8252506020830151828111156200220c57600080fd5b6200221a8c82860162001f92565b602083015250604083015160408201528098505050506200223f88602089016200204e565b945062002251886101008901620020c5565b93506200226388610140890162002121565b925062002274610220880162002036565b915062002285610240880162002036565b90509295509295509295565b600181811c90821680620022a657607f821691505b602082108103620022c757634e487b7160e01b600052602260045260246000fd5b50919050565b601f821115620018e157600081815260208120601f850160051c81016020861015620022f65750805b601f850160051c820191505b81811015620023175782815560010162002302565b505050505050565b81516001600160401b038111156200233b576200233b62001ef9565b62002353816200234c845462002291565b84620022cd565b602080601f8311600181146200238b5760008415620023725750858301515b600019600386901b1c1916600185901b17855562002317565b600085815260208120601f198616915b82811015620023bc578886015182559484019460019091019084016200239b565b5085821015620023db5787850151600019600388901b60f8161c191681555b5050505050600190811b01905550565b634e487b7160e01b600052601160045260246000fd5b80820281158282048414176200241b576200241b620023eb565b92915050565b808201808211156200241b576200241b620023eb565b634e487b7160e01b600052602160045260246000fd5b6000602082840312156200246057600080fd5b6200246b8262002036565b9392505050565b634e487b7160e01b600052601260045260246000fd5b6000826200249a576200249a62002472565b500490565b818103818111156200241b576200241b620023eb565b80820260008212600160ff1b84141615620024d457620024d4620023eb565b81810583148215176200241b576200241b620023eb565b600082620024fd57620024fd62002472565b600160ff1b8214600019841416156200251a576200251a620023eb565b500590565b8181036000831280158383131683831282161715620025425762002542620023eb565b5092915050565b634e487b7160e01b600052603260045260246000fd5b600060a082018783526020878185015260a0604085015281875180845260c086019150828901935060005b81811015620025b15784516001600160a01b0316835293830193918301916001016200258a565b50506001600160a01b03969096166060850152505050608001529392505050565b600060208284031215620025e557600080fd5b5051919050565b600060208284031215620025ff57600080fd5b815180151581146200246b57600080fd5b8082018281126000831280158216821582161715620026335762002633620023eb565b505092915050565b80516001600160701b03811681146200203157600080fd5b6000806000606084860312156200266957600080fd5b62002674846200263b565b925062002684602085016200263b565b9150604084015163ffffffff811681146200269e57600080fd5b809150509250925092565b600080600060608486031215620026bf57600080fd5b8351925060208401519150604084015190509250925092565b614d6f80620026e86000396000f3fe6080604052600436106105115760003560e01c80638e7a45f311610297578063cf721b1511610165578063ed70984a116100cc578063f4a0a52811610085578063f4a0a52814611073578063f887ea4014611093578063f9f92be4146110b3578063ff974fa7146110e3578063ffb54a9914611104578063ffd2a7d31461111e57600080fd5b8063ed70984a14610f6a578063ed87b58814610fdd578063f17f54a514610ff3578063f20ffed714611013578063f2fde38b14611033578063f46a04eb1461105357600080fd5b8063dc1052e21161011e578063dc1052e214610e8e578063dd62ed3e14610eae578063ddd01ea814610ef4578063e01af92c14610f14578063e4456ecb14610f34578063ebc38ab014610f5457600080fd5b8063cf721b1514610db0578063d0520c2314610dc6578063d123973014610e15578063d74c8b7d14610e2f578063d80273ec14610e4f578063d830678614610e6f57600080fd5b8063a289d18711610209578063c2ed286b116101c2578063c2ed286b14610cff578063c792645814610d1f578063c7d2c05d14610d3f578063c9567bf914610d55578063cb4ca63114610d6a578063cc1776d314610d9a57600080fd5b8063a289d18714610c55578063a8aa1b3114610c5d578063a9059cbb14610c82578063b37dd69014610ca2578063b42f8fc314610cc9578063b51ea7ca14610cdf57600080fd5b80639d0014b11161025b5780639d0014b114610b895780639e281a9814610ba95780639f13464e14610bc95780639ff46e7414610bdf578063a01c348314610bff578063a1305aa514610c1557600080fd5b80638e7a45f314610ae457806395d89b4114610b0457806396cf4feb14610b195780639ab4a44514610b395780639b19251a14610b5957600080fd5b80634c7dea09116103df57806370a08231116103465780638456cb59116102ff5780638456cb5914610a4557806385a6b3ae14610a5a57806387c74c1414610a705780638b52590314610a865780638cd09d5014610aa65780638da5cb5b14610ac657600080fd5b806370a082311461097e578063715018a61461099e57806375f0a874146109b3578063788c5999146109eb578063790ca41314610a195780638124f7ac14610a2f57600080fd5b806362a59a311161039857806362a59a31146108d75780636567c442146108ec578063668038e01461090c5780636817c76c1461092157806368306e43146109375780636ddd17131461096457600080fd5b80634c7dea091461083d5780634f7041a51461085357806351f205e41461086957806351fb012d1461087e5780635c975abb146108985780635d098b38146108b757600080fd5b806322a62e1e1161048357806338e21cce1161043c57806338e21cce1461076b5780633c271a051461079b5780633f322f48146107bb5780633f4ba83a146107db578063413558ee146107f05780634a93c2061461081057600080fd5b806322a62e1e1461069a57806323b872dd146106f1578063313ce5671461071157806332807ec01461072d57806332c60eef1461073557806334dc3d851461074b57600080fd5b8063095ea7b3116104d5578063095ea7b3146105b65780630cb46b75146105e65780630e85d1e314610606578063127f4b2e14610626578063139e23b51461064657806318160ddd1461068557600080fd5b80630445b6671461051d578063052d9e7e1461054657806305bf0a541461056857806306fdde031461057e57806309218ee7146105a057600080fd5b3661051857005b600080fd5b34801561052957600080fd5b5061053360225481565b6040519081526020015b60405180910390f35b34801561055257600080fd5b50610566610561366004614719565b61114e565b005b34801561057457600080fd5b5061053360185481565b34801561058a57600080fd5b5061059361119e565b60405161053d919061473d565b3480156105ac57600080fd5b5061053360175481565b3480156105c257600080fd5b506105d66105d13660046147a0565b611230565b604051901515815260200161053d565b3480156105f257600080fd5b506105666106013660046147cc565b61124a565b34801561061257600080fd5b506105666106213660046147e9565b6112ba565b34801561063257600080fd5b5061056661064136600461486f565b6113a4565b34801561065257600080fd5b5061065b611464565b6040805195151586526020860194909452928401919091526060830152608082015260a00161053d565b34801561069157600080fd5b50600254610533565b3480156106a657600080fd5b50601454601554601654601754601854601954601a54604080519788526020880196909652948601939093526060850191909152608084015260a083015260c082015260e00161053d565b3480156106fd57600080fd5b506105d661070c366004614888565b61152c565b34801561071d57600080fd5b506040516012815260200161053d565b610566611550565b34801561074157600080fd5b5061053360095481565b34801561075757600080fd5b5061056661076636600461486f565b61178e565b34801561077757600080fd5b506105d66107863660046147cc565b600e6020526000908152604090205460ff1681565b3480156107a757600080fd5b506105666107b63660046147e9565b6117bd565b3480156107c757600080fd5b506105666107d636600461486f565b6118a1565b3480156107e757600080fd5b50610566611954565b3480156107fc57600080fd5b5061056661080b36600461486f565b611964565b34801561081c57600080fd5b5061053361082b3660046147cc565b601c6020526000908152604090205481565b34801561084957600080fd5b5061053360085481565b34801561085f57600080fd5b5061053360145481565b34801561087557600080fd5b506105666119c5565b34801561088a57600080fd5b50600f546105d69060ff1681565b3480156108a457600080fd5b50600554600160a01b900460ff166105d6565b3480156108c357600080fd5b506105666108d23660046147cc565b611a21565b3480156108e357600080fd5b50610566611a90565b3480156108f857600080fd5b5061056661090736600461486f565b611ced565b34801561091857600080fd5b50610566611d86565b34801561092d57600080fd5b5061053360075481565b34801561094357600080fd5b506105336109523660046147cc565b601d6020526000908152604090205481565b34801561097057600080fd5b506021546105d69060ff1681565b34801561098a57600080fd5b506105336109993660046147cc565b612026565b3480156109aa57600080fd5b50610566612041565b3480156109bf57600080fd5b50601b546109d3906001600160a01b031681565b6040516001600160a01b03909116815260200161053d565b3480156109f757600080fd5b50600554610a0c90600160a81b900460ff1681565b60405161053d91906148df565b348015610a2557600080fd5b5061053360255481565b348015610a3b57600080fd5b5061053360165481565b348015610a5157600080fd5b50610566612053565b348015610a6657600080fd5b50610533601f5481565b348015610a7c57600080fd5b50610533600b5481565b348015610a9257600080fd5b50610566610aa136600461486f565b612063565b348015610ab257600080fd5b50610566610ac136600461486f565b6120d6565b348015610ad257600080fd5b506005546001600160a01b03166109d3565b348015610af057600080fd5b50610566610aff36600461486f565b612146565b348015610b1057600080fd5b50610593612175565b348015610b2557600080fd5b50610566610b3436600461486f565b612184565b348015610b4557600080fd5b506006546109d3906001600160a01b031681565b348015610b6557600080fd5b506105d6610b743660046147cc565b60106020526000908152604090205460ff1681565b348015610b9557600080fd5b50610566610ba436600461486f565b61221a565b348015610bb557600080fd5b50610566610bc43660046147a0565b612227565b348015610bd557600080fd5b5061053360205481565b348015610beb57600080fd5b50610566610bfa36600461486f565b612361565b348015610c0b57600080fd5b506109d361dead81565b348015610c2157600080fd5b50610c2a61236e565b60405161053d94939291909315158452911515602084015260ff166040830152606082015260800190565b6105666123ac565b348015610c6957600080fd5b506012546109d39061010090046001600160a01b031681565b348015610c8e57600080fd5b506105d6610c9d3660046147a0565b6124d9565b348015610cae57600080fd5b50602454610cbc9060ff1681565b60405161053d91906148f9565b348015610cd557600080fd5b50610533601a5481565b348015610ceb57600080fd5b50610566610cfa36600461486f565b6124e7565b348015610d0b57600080fd5b50610566610d1a36600461490d565b61257d565b348015610d2b57600080fd5b50610533610d3a3660046147cc565b6125b0565b348015610d4b57600080fd5b50610533600a5481565b348015610d6157600080fd5b5061056661263a565b348015610d7657600080fd5b506105d6610d853660046147cc565b60236020526000908152604090205460ff1681565b348015610da657600080fd5b5061053360155481565b348015610dbc57600080fd5b50610533600d5481565b348015610dd257600080fd5b50610ddb6126e4565b6040805197151588526020880196909652948601939093526060850191909152608084015260a083015260ff1660c082015260e00161053d565b348015610e2157600080fd5b50600c546105d69060ff1681565b348015610e3b57600080fd5b50610566610e4a366004614719565b61273e565b348015610e5b57600080fd5b50610566610e6a36600461486f565b61279e565b348015610e7b57600080fd5b506021546105d690610100900460ff1681565b348015610e9a57600080fd5b50610566610ea936600461486f565b61289b565b348015610eba57600080fd5b50610533610ec9366004614946565b6001600160a01b03918216600090815260016020908152604080832093909416825291909152205490565b348015610f0057600080fd5b50610566610f0f36600461486f565b61290c565b348015610f2057600080fd5b50610566610f2f366004614719565b612a3d565b348015610f4057600080fd5b50610566610f4f36600461486f565b612a58565b348015610f6057600080fd5b5061053360195481565b348015610f7657600080fd5b50610fbe610f853660046147cc565b6001600160a01b03166000908152600e60209081526040808320546010835281842054601190935292205460ff92831693918316921690565b604080519315158452911515602084015215159082015260600161053d565b348015610fe957600080fd5b50610533601e5481565b348015610fff57600080fd5b5061056661100e36600461486f565b612b3e565b34801561101f57600080fd5b5061056661102e36600461486f565b612b9f565b34801561103f57600080fd5b5061056661104e3660046147cc565b612c13565b34801561105f57600080fd5b5061056661106e366004614719565b612c4e565b34801561107f57600080fd5b5061056661108e36600461486f565b612c69565b34801561109f57600080fd5b506013546109d3906001600160a01b031681565b3480156110bf57600080fd5b506105d66110ce3660046147cc565b60116020526000908152604090205460ff1681565b3480156110ef57600080fd5b50601b546105d690600160a01b900460ff1681565b34801561111057600080fd5b506012546105d69060ff1681565b34801561112a57600080fd5b50611133612c76565b6040805193845260208401929092529082015260600161053d565b611156612d3c565b600f805460ff19168215159081179091556040519081527f49d3057180a80162d2a0381be6848c15e0d117e900366482dd3b5443ca8db974906020015b60405180910390a150565b6060600380546111ad90614974565b80601f01602080910402602001604051908101604052809291908181526020018280546111d990614974565b80156112265780601f106111fb57610100808354040283529160200191611226565b820191906000526020600020905b81548152906001019060200180831161120957829003601f168201915b5050505050905090565b60003361123e818585612d69565b60019150505b92915050565b611252612d3c565b6001600554600160a81b900460ff166001811115611272576112726148c9565b146112985760405162461bcd60e51b815260040161128f906149ae565b60405180910390fd5b600680546001600160a01b0319166001600160a01b0392909216919091179055565b6112c2612d3c565b60005b8281101561139e5781601160008686858181106112e4576112e46149d5565b90506020020160208101906112f991906147cc565b6001600160a01b031681526020810191909152604001600020805460ff1916911515919091179055838382818110611333576113336149d5565b905060200201602081019061134891906147cc565b6001600160a01b03167f6a12b3df6cba4203bd7fd06b816789f87de8c594299aed5717ae070fac781bac83604051611384911515815260200190565b60405180910390a28061139681614a01565b9150506112c5565b50505050565b6113ac612d3c565b478111156113ef5760405162461bcd60e51b815260206004820152601060248201526f24b739bab33334b1b4b2b73a1021272160811b604482015260640161128f565b6005546040516001600160a01b039091169082156108fc029083906000818181858888f19350505050158015611429573d6000803e3d6000fd5b506040518181526000907f5fafa99d0643513820be26656b45130b01e1c03062e1266bf36f88cbd3bd9695906020015b60405180910390a250565b6000808080808080600554600160a81b900460ff16600181111561148a5761148a6148c9565b03611496575047611505565b6006546040516370a0823160e01b81523060048201526001600160a01b03909116906370a0823190602401602060405180830381865afa1580156114de573d6000803e3d6000fd5b505050506040513d601f19601f820116820180604052508101906115029190614a1a565b90505b601b54601a54601f54602054600160a01b90930460ff169991985096509094509092509050565b60003361153a858285612d7b565b611545858585612df4565b506001949350505050565b611558612e53565b611560612e6f565b600c5460ff166115a55760405162461bcd60e51b815260206004820152601060248201526f135a5b9d081b9bdd08195b98589b195960821b604482015260640161128f565b6000600554600160a81b900460ff1660018111156115c5576115c56148c9565b146116045760405162461bcd60e51b815260206004820152600f60248201526e57726f6e67206d696e74206d6f646560881b604482015260640161128f565b336000908152600e602052604090205460ff16156116555760405162461bcd60e51b815260206004820152600e60248201526d105b1c9958591e481b5a5b9d195960921b604482015260640161128f565b600954600d54106116985760405162461bcd60e51b815260206004820152600d60248201526c135a5b9d081cdbdb19081bdd5d609a1b604482015260640161128f565b60075434146116e05760405162461bcd60e51b8152602060048201526014602482015273125b98dbdc9c9958dd0810939088185b5bdd5b9d60621b604482015260640161128f565b3360009081526011602052604090205460ff16156117105760405162461bcd60e51b815260040161128f90614a33565b600f5460ff161561176d573360009081526010602052604090205460ff1661176d5760405162461bcd60e51b815260206004820152601060248201526f139bdd081a5b881dda1a5d195b1a5cdd60821b604482015260640161128f565b611775612e9a565b61178c6001600080516020614d1a83398151915255565b565b611796612d3c565b6127108111156117b85760405162461bcd60e51b815260040161128f90614a58565b600a55565b6117c5612d3c565b60005b8281101561139e5781601060008686858181106117e7576117e76149d5565b90506020020160208101906117fc91906147cc565b6001600160a01b031681526020810191909152604001600020805460ff1916911515919091179055838382818110611836576118366149d5565b905060200201602081019061184b91906147cc565b6001600160a01b03167ff93f9a76c1bf3444d22400a00cb9fe990e6abe9dbb333fda48859cfee864543d83604051611887911515815260200190565b60405180910390a28061189981614a01565b9150506117c8565b6118a9612d3c565b6000600554600160a81b900460ff1660018111156118c9576118c96148c9565b146119055760405162461bcd60e51b815260206004820152600c60248201526b4e6f7420424e42206d6f646560a01b604482015260640161128f565b478111156119485760405162461bcd60e51b815260206004820152601060248201526f24b739bab33334b1b4b2b73a1021272160811b604482015260640161128f565b6119518161300d565b50565b61195c612d3c565b61178c61304c565b61196c612d3c565b60025460095461197c9083614a7f565b11156119c05760405162461bcd60e51b81526020600482015260136024820152724578636565647320746f74616c537570706c7960681b604482015260640161128f565b600855565b6119cd612d3c565b60006119d830612026565b11611a195760405162461bcd60e51b815260206004820152601160248201527004e6f20746f6b656e7320746f207377617607c1b604482015260640161128f565b61178c6130a2565b611a29612d3c565b6001600160a01b038116611a6e5760405162461bcd60e51b815260206004820152600c60248201526b5a65726f206164647265737360a01b604482015260640161128f565b601b80546001600160a01b0319166001600160a01b0392909216919091179055565b611a98612e53565b611aa0612e6f565b600c5460ff16611ae55760405162461bcd60e51b815260206004820152601060248201526f135a5b9d081b9bdd08195b98589b195960821b604482015260640161128f565b6001600554600160a81b900460ff166001811115611b0557611b056148c9565b14611b445760405162461bcd60e51b815260206004820152600f60248201526e57726f6e67206d696e74206d6f646560881b604482015260640161128f565b336000908152600e602052604090205460ff1615611b955760405162461bcd60e51b815260206004820152600e60248201526d105b1c9958591e481b5a5b9d195960921b604482015260640161128f565b600954600d5410611bd85760405162461bcd60e51b815260206004820152600d60248201526c135a5b9d081cdbdb19081bdd5d609a1b604482015260640161128f565b3360009081526011602052604090205460ff1615611c085760405162461bcd60e51b815260040161128f90614a33565b600f5460ff1615611c65573360009081526010602052604090205460ff16611c655760405162461bcd60e51b815260206004820152601060248201526f139bdd081a5b881dda1a5d195b1a5cdd60821b604482015260640161128f565b6006546007546040516323b872dd60e01b815233600482015230602482015260448101919091526001600160a01b03909116906323b872dd906064016020604051808303816000875af1158015611cc0573d6000803e3d6000fd5b505050506040513d601f19601f82011682018060405250810190611ce49190614a96565b50611775612e9a565b611cf5612d3c565b601a5481601854601754611d099190614ab3565b611d139190614ab3565b611d1d9190614ab3565b61271014611d3d5760405162461bcd60e51b815260040161128f90614ac6565b601981905560175460185460408051928352602083019190915281018290527f76dd5907ef5de0037bd517b0d9493e4ceb4aa869e476a00b40b55854602c2f2190606001611193565b611d8e612e53565b601e54336000818152601c60205260408120549091670de0b6b3a7640000908490611db890612026565b611dc29190614aec565b611dcc9190614b32565b611dd69190614b60565b90506000811315611e0657336000908152601d602052604081208054839290611e00908490614ab3565b90915550505b670de0b6b3a764000082611e1933612026565b611e239190614aec565b611e2d9190614b32565b336000908152601c6020908152604080832093909355601d9052205480611e8e5760405162461bcd60e51b81526020600482015260156024820152744e6f206469766964656e647320746f20636c61696d60581b604482015260640161128f565b336000908152601d6020908152604082208290558054839290611eb2908490614ab3565b9091555060009050600554600160a81b900460ff166001811115611ed857611ed86148c9565b03611f605780471015611f2d5760405162461bcd60e51b815260206004820152601860248201527f496e73756666696369656e7420424e422062616c616e63650000000000000000604482015260640161128f565b604051339082156108fc029083906000818181858888f19350505050158015611f5a573d6000803e3d6000fd5b50611fd7565b60065460405163a9059cbb60e01b8152336004820152602481018390526001600160a01b039091169063a9059cbb906044016020604051808303816000875af1158015611fb1573d6000803e3d6000fd5b505050506040513d601f19601f82011682018060405250810190611fd59190614a96565b505b60405181815233907f16b8533c95f66ab8c192c98ddcf5031bcb3ee6f4022988bdadd57d3422da30739060200160405180910390a250505061178c6001600080516020614d1a83398151915255565b6001600160a01b031660009081526020819052604090205490565b612049612d3c565b61178c6000613180565b61205b612d3c565b61178c6131d2565b61206b612d3c565b6103e881111561208d5760405162461bcd60e51b815260040161128f90614b87565b601681905560145460155460408051928352602083019190915281018290527fad292e707e8a094bdd1cff9ec5263d8e4e538d8e6e457c032a2dbf7174ebec4b90606001611193565b6120de612d3c565b6103e88111156121005760405162461bcd60e51b815260040161128f90614b87565b601581905560145460165460408051928352602083018490528201527fad292e707e8a094bdd1cff9ec5263d8e4e538d8e6e457c032a2dbf7174ebec4b90606001611193565b61214e612d3c565b6127108111156121705760405162461bcd60e51b815260040161128f90614a58565b600b55565b6060600480546111ad90614974565b61218c612d3c565b601a54601954826017546121a09190614ab3565b6121aa9190614ab3565b6121b49190614ab3565b612710146121d45760405162461bcd60e51b815260040161128f90614ac6565b601881905560175460195460408051928352602083018490528201527f76dd5907ef5de0037bd517b0d9493e4ceb4aa869e476a00b40b55854602c2f2190606001611193565b612222612d3c565b602255565b61222f612d3c565b306001600160a01b038316036122875760405162461bcd60e51b815260206004820152601960248201527f43616e6e6f74207769746864726177206f776e20746f6b656e00000000000000604482015260640161128f565b816001600160a01b031663a9059cbb6122a86005546001600160a01b031690565b6040516001600160e01b031960e084901b1681526001600160a01b039091166004820152602481018490526044016020604051808303816000875af11580156122f5573d6000803e3d6000fd5b505050506040513d601f19601f820116820180604052508101906123199190614a96565b50816001600160a01b03167f5fafa99d0643513820be26656b45130b01e1c03062e1266bf36f88cbd3bd96958260405161235591815260200190565b60405180910390a25050565b612369612d3c565b602555565b601254600c5460245460009283928392839260ff9081169281169116600281111561239b5761239b6148c9565b602554935093509350935090919293565b6123b4612d3c565b346001600554600160a81b900460ff1660018111156123d5576123d56148c9565b03612492576006546040516370a0823160e01b81523060048201526001600160a01b03909116906370a0823190602401602060405180830381865afa158015612422573d6000803e3d6000fd5b505050506040513d601f19601f820116820180604052508101906124469190614a1a565b90506000811161248d5760405162461bcd60e51b8152602060048201526012602482015271139bc81554d115081d1bc819195c1bdcda5d60721b604482015260640161128f565b6124d0565b600081116124d05760405162461bcd60e51b815260206004820152600b60248201526a139bc8109390881cd95b9d60aa1b604482015260640161128f565b61195181613215565b60003361123e818585612df4565b6124ef612d3c565b601a546019546018546125029084614ab3565b61250c9190614ab3565b6125169190614ab3565b612710146125365760405162461bcd60e51b815260040161128f90614ac6565b60178190556018546019546040805184815260208101939093528201527f76dd5907ef5de0037bd517b0d9493e4ceb4aa869e476a00b40b55854602c2f2190606001611193565b612585612d3c565b6001600160a01b03919091166000908152602360205260409020805460ff1916911515919091179055565b601e546001600160a01b0382166000908152601c60205260408120549091908290670de0b6b3a7640000836125e487612026565b6125ee9190614aec565b6125f89190614b32565b6126029190614b60565b6001600160a01b0385166000908152601d60205260408120549192508213156126325761262f8282614ab3565b90505b949350505050565b612642612d3c565b60125460ff16156126845760405162461bcd60e51b815260206004820152600c60248201526b20b63932b0b23c9037b832b760a11b604482015260640161128f565b600060245460ff16600281111561269d5761269d6148c9565b146126dc5760405162461bcd60e51b815260206004820152600f60248201526e4e6f74206d616e75616c206d6f646560881b604482015260640161128f565b61178c6132b2565b600c54600d54600954600754600854600a5460055460009687968796879687968796879660ff96871696600160a81b909104166001811115612728576127286148c9565b959d949c50929a50909850965094509092509050565b612746612d3c565b601b8054821515600160a01b0260ff60a01b19909116179055601a546040517f17b57698671063203fb54143aad83857512845b4a421bdb4458e10686de4dfec91611193918491909115158252602082015260400190565b6127a6612d3c565b6001600554600160a81b900460ff1660018111156127c6576127c66148c9565b146127e35760405162461bcd60e51b815260040161128f906149ae565b6006546040516370a0823160e01b81523060048201526001600160a01b03909116906370a0823190602401602060405180830381865afa15801561282b573d6000803e3d6000fd5b505050506040513d601f19601f8201168201806040525081019061284f9190614a1a565b8111156128925760405162461bcd60e51b8152602060048201526011602482015270125b9cdd59999a58da595b9d081554d115607a1b604482015260640161128f565b611951816132f1565b6128a3612d3c565b6103e88111156128c55760405162461bcd60e51b815260040161128f90614b87565b60148190556015546016546040805184815260208101939093528201527fad292e707e8a094bdd1cff9ec5263d8e4e538d8e6e457c032a2dbf7174ebec4b90606001611193565b612914612d3c565b6001600554600160a81b900460ff166001811115612934576129346148c9565b146129515760405162461bcd60e51b815260040161128f906149ae565b6000811161298f5760405162461bcd60e51b815260206004820152600b60248201526a416d6f756e74207a65726f60a81b604482015260640161128f565b6006546040516370a0823160e01b815230600482015282916001600160a01b0316906370a0823190602401602060405180830381865afa1580156129d7573d6000803e3d6000fd5b505050506040513d601f19601f820116820180604052508101906129fb9190614a1a565b10156124d05760405162461bcd60e51b8152602060048201526011602482015270125b9cdd59999a58da595b9d081554d115607a1b604482015260640161128f565b612a45612d3c565b6021805460ff1916911515919091179055565b612a60612d3c565b6012546001600160a01b036101009091041663a9059cbb612a896005546001600160a01b031690565b6040516001600160e01b031960e084901b1681526001600160a01b039091166004820152602481018490526044016020604051808303816000875af1158015612ad6573d6000803e3d6000fd5b505050506040513d601f19601f82011682018060405250810190612afa9190614a96565b506012546040518281526101009091046001600160a01b0316907f5fafa99d0643513820be26656b45130b01e1c03062e1266bf36f88cbd3bd969590602001611459565b612b46612d3c565b600254600854612b569083614a7f565b1115612b9a5760405162461bcd60e51b81526020600482015260136024820152724578636565647320746f74616c537570706c7960681b604482015260640161128f565b600955565b612ba7612d3c565b612710811115612bc95760405162461bcd60e51b815260040161128f90614a58565b601a819055601b5460408051600160a01b90920460ff1615158252602082018390527f17b57698671063203fb54143aad83857512845b4a421bdb4458e10686de4dfec9101611193565b612c1b612d3c565b6001600160a01b038116612c4557604051631e4fbdf760e01b81526000600482015260240161128f565b61195181613180565b612c56612d3c565b600c805460ff1916911515919091179055565b612c71612d3c565b600755565b60008080806001600554600160a81b900460ff166001811115612c9b57612c9b6148c9565b148015612cb257506006546001600160a01b031615155b15612d26576006546040516370a0823160e01b81523060048201526001600160a01b03909116906370a0823190602401602060405180830381865afa158015612cff573d6000803e3d6000fd5b505050506040513d601f19601f82011682018060405250810190612d239190614a1a565b90505b47612d3030612026565b90959094509092509050565b6005546001600160a01b0316331461178c5760405163118cdaa760e01b815233600482015260240161128f565b612d768383836001613330565b505050565b6001600160a01b0383811660009081526001602090815260408083209386168352929052205460001981101561139e5781811015612de557604051637dc7a0d960e11b81526001600160a01b0384166004820152602481018290526044810183905260640161128f565b61139e84848484036000613330565b6001600160a01b038316612e1e57604051634b637e8f60e11b81526000600482015260240161128f565b6001600160a01b038216612e485760405163ec442f0560e01b81526000600482015260240161128f565b612d76838383613405565b612e5b6138bb565b6002600080516020614d1a83398151915255565b600554600160a01b900460ff161561178c5760405163d93c066560e01b815260040160405180910390fd5b6000612710600a54600854612eaf9190614a7f565b612eb99190614bad565b9050600081600854612ecb9190614bc1565b90506000600554600160a81b900460ff166001811115612eed57612eed6148c9565b03612f23576000612710600b54600754612f079190614a7f565b612f119190614bad565b9050612f1d82826138eb565b50612f50565b6000612710600b54600754612f389190614a7f565b612f429190614bad565b9050612f4e82826139fd565b505b612f5b303384612df4565b336000908152600e60205260408120805460ff19166001179055600d805491612f8383614a01565b9091555050600754604080518481526020810192909252810182905233907f5a3358a3d27a5373c0df2604662088d37894d56b7cfd27f315770440f4e0d9199060600160405180910390a2600954600d541061300957600c805460ff19169055600260245460ff166002811115612ffc57612ffc6148c9565b03613009576130096132b2565b5050565b600061301882613b5c565b905061302330612026565b8111156130365761303330612026565b90505b80600003613042575050565b61300981836138eb565b613054613cb9565b6005805460ff60a01b191690557f5db9ee0a495bf2e6ff9c91a7834c1ba4fdd244a5e8aa4e537bd38aeae4b073aa335b6040516001600160a01b0390911681526020015b60405180910390a1565b6021805461ff00191661010017905560006130bc30612026565b60225490915081908111156130d057506022545b806000036130df575050613173565b60006019546018546017546130f49190614ab3565b6130fe9190614ab3565b601b54909150600160a01b900460ff16801561311c57506000601a54115b1561313157601a5461312e9082614ab3565b90505b6000600554600160a81b900460ff166001811115613151576131516148c9565b03613165576131608282613ce3565b61316f565b61316f8282613fcb565b5050505b6021805461ff0019169055565b600580546001600160a01b038381166001600160a01b0319831681179093556040519116919082907f8be0079c531659141344cd1fd0a4f28419497f9722a3daafe3b4186f6b6457e090600090a35050565b6131da612e6f565b6005805460ff60a01b1916600160a01b1790557f62e78cea01bee320cd4e420270b5ea74000d11b0c9f74754ebdbfc544b05a2586130843390565b600061322060025490565b90508060000361322e575050565b8061324183670de0b6b3a7640000614a7f565b61324b9190614bad565b601e600082825461325c9190614bd4565b9250508190555081601f60008282546132759190614ab3565b90915550506040518281527f868441bc0e3b50e598fc39ab9d370f6cbab5ee4b02c6b19e17eec2647415609c906020015b60405180910390a15050565b6012805460ff191660011790556040517f03e843c4f24c03a4bec271685c791f96df5c653a0414bd6db8be7cd8148a8e33906130989042815260200190565b60006132fc82613b5c565b905061330730612026565b81111561331a5761331730612026565b90505b80600003613326575050565b61300981836139fd565b6001600160a01b03841661335a5760405163e602df0560e01b81526000600482015260240161128f565b6001600160a01b03831661338457604051634a1406b160e11b81526000600482015260240161128f565b6001600160a01b038085166000908152600160209081526040808320938716835292905220829055801561139e57826001600160a01b0316846001600160a01b03167f8c5be1e5ebec7d5bd14f71427d1e84f3dd0314c0f7b2291e5b200ac8c7c3b925846040516133f791815260200190565b60405180910390a350505050565b6001600160a01b03821661345b5760405162461bcd60e51b815260206004820152601760248201527f45524332303a207472616e7366657220746f207a65726f000000000000000000604482015260640161128f565b600081116134a25760405162461bcd60e51b81526020600482015260146024820152735472616e7366657220616d6f756e74207a65726f60601b604482015260640161128f565b6001600160a01b0383161580613515576001600160a01b03841660009081526011602052604090205460ff161580156134f457506001600160a01b03831660009081526011602052604090205460ff16155b6135105760405162461bcd60e51b815260040161128f90614a33565b61354e565b6001600160a01b03831660009081526011602052604090205460ff161561354e5760405162461bcd60e51b815260040161128f90614a33565b60125460ff161580156135775750600160245460ff166002811115613575576135756148c9565b145b801561358557506025544210155b15613592576135926132b2565b60125460ff161580156135a3575080155b156136a0576005546001600160a01b03858116911614806135d157506005546001600160a01b038481169116145b806135e457506001600160a01b03841630145b806135f757506001600160a01b03831630145b8061361457506012546001600160a01b0385811661010090920416145b8061363157506012546001600160a01b0384811661010090920416145b8061364957506013546001600160a01b038581169116145b8061366157506013546001600160a01b038481169116145b6136a05760405162461bcd60e51b815260206004820152601060248201526f2a3930b234b733903737ba1037b832b760811b604482015260640161128f565b80806136c457506001600160a01b03841660009081526023602052604090205460ff165b806136e757506001600160a01b03831660009081526023602052604090205460ff165b156136f75761139e848484614403565b6012546000906001600160a01b038681166101009092041614801561372a57506013546001600160a01b03858116911614155b801561373f57506001600160a01b0384163014155b1561376657612710601454846137559190614a7f565b61375f9190614bad565b9050613869565b6012546001600160a01b038581166101009092041614801561379157506001600160a01b0385163014155b80156137ab57506013546001600160a01b03868116911614155b1561381057612710601554846137c19190614a7f565b6137cb9190614bad565b60215490915060ff1680156137e85750602154610100900460ff16155b80156137fe57506022546137fb30612026565b10155b1561380b5761380b6130a2565b613869565b6012546001600160a01b03868116610100909204161480159061384657506012546001600160a01b038581166101009092041614155b15613869576127106016548461385c9190614a7f565b6138669190614bad565b90505b801561387a5761387a853083614403565b601b54600160a01b900460ff16156138a0576138a0858561389b8487614bc1565b61452d565b6138b485856138af8487614bc1565b614403565b5050505050565b600080516020614d1a8339815191525460020361178c57604051633ee5aeb560e01b815260040160405180910390fd5b6013546139039030906001600160a01b031684612d69565b6013546001600160a01b031663f305d71982308560008061392c6005546001600160a01b031690565b60405160e088901b6001600160e01b03191681526001600160a01b03958616600482015260248101949094526044840192909252606483015290911660848201524260a482015260c40160606040518083038185885af1158015613994573d6000803e3d6000fd5b50505050506040513d601f19601f820116820180604052508101906139b99190614bfc565b505060408051848152602081018490526000918101919091527fd7f28048575eead8851d024ead087913957dfb4fd1a02b4d1573f5352a5a2be391506060016132a6565b601354613a159030906001600160a01b031684612d69565b60065460135460405163095ea7b360e01b81526001600160a01b0391821660048201526024810184905291169063095ea7b3906044016020604051808303816000875af1158015613a6a573d6000803e3d6000fd5b505050506040513d601f19601f82011682018060405250810190613a8e9190614a96565b506013546006546001600160a01b039182169163e8e33700913091168585600080613ac16005546001600160a01b031690565b60405160e089901b6001600160e01b03191681526001600160a01b039788166004820152958716602487015260448601949094526064850192909252608484015260a483015290911660c48201524260e4820152610104016060604051808303816000875af1158015613b38573d6000803e3d6000fd5b505050506040513d601f19601f820116820180604052508101906139b99190614bfc565b6000806000601260019054906101000a90046001600160a01b03166001600160a01b0316630902f1ac6040518163ffffffff1660e01b8152600401606060405180830381865afa158015613bb4573d6000803e3d6000fd5b505050506040513d601f19601f82011682018060405250810190613bd89190614c46565b50915091506000601260019054906101000a90046001600160a01b03166001600160a01b0316630dfe16816040518163ffffffff1660e01b8152600401602060405180830381865afa158015613c32573d6000803e3d6000fd5b505050506040513d601f19601f82011682018060405250810190613c569190614c8b565b9050306001600160a01b03821603613c9a57816001600160701b0316836001600160701b031686613c879190614a7f565b613c919190614bad565b95945050505050565b826001600160701b0316826001600160701b031686613c879190614a7f565b600554600160a01b900460ff1661178c57604051638dfc202b60e01b815260040160405180910390fd5b604080516002808252606082018352479260009291906020830190803683370190505090503081600081518110613d1c57613d1c6149d5565b6001600160a01b03928316602091820292909201810191909152601354604080516315ab88c960e31b81529051919093169263ad5c46489260048083019391928290030181865afa158015613d75573d6000803e3d6000fd5b505050506040513d601f19601f82011682018060405250810190613d999190614c8b565b81600181518110613dac57613dac6149d5565b6001600160a01b039283166020918202929092010152601354613dd29130911686612d69565b60135460405163791ac94760e01b81526001600160a01b039091169063791ac94790613e0b908790600090869030904290600401614ca8565b600060405180830381600087803b158015613e2557600080fd5b505af1158015613e39573d6000803e3d6000fd5b5050505060008247613e4b9190614bc1565b905060008460175483613e5e9190614a7f565b613e689190614bad565b905060008560185484613e7b9190614a7f565b613e859190614bad565b601b54909150600090600160a01b900460ff168015613ea657506000601a54115b613eb1576000613eca565b86601a5485613ec09190614a7f565b613eca9190614bad565b905060008183613eda8688614bc1565b613ee49190614bc1565b613eee9190614bc1565b90508315613f3257601b546040516001600160a01b039091169085156108fc029086906000818181858888f19350505050158015613f30573d6000803e3d6000fd5b505b8215613f695760405161dead9084156108fc029085906000818181858888f19350505050158015613f67573d6000803e3d6000fd5b505b8115613f7857613f7882613215565b8015613f8757613f878161300d565b604080518a8152602081018790527f05ab84b321981d7d9a13402e494604c50821bcb5f2400d128fa06cd6451113d4910160405180910390a1505050505050505050565b6006546040516370a0823160e01b81523060048201526000916001600160a01b0316906370a0823190602401602060405180830381865afa158015614014573d6000803e3d6000fd5b505050506040513d601f19601f820116820180604052508101906140389190614a1a565b6040805160038082526080820190925291925060009190602082016060803683370190505090503081600081518110614073576140736149d5565b6001600160a01b03928316602091820292909201810191909152601354604080516315ab88c960e31b81529051919093169263ad5c46489260048083019391928290030181865afa1580156140cc573d6000803e3d6000fd5b505050506040513d601f19601f820116820180604052508101906140f09190614c8b565b81600181518110614103576141036149d5565b6001600160a01b039283166020918202929092010152600654825191169082906002908110614134576141346149d5565b6001600160a01b03928316602091820292909201015260135461415a9130911686612d69565b601354604051635c11d79560e01b81526001600160a01b0390911690635c11d79590614193908790600090869030904290600401614ca8565b600060405180830381600087803b1580156141ad57600080fd5b505af11580156141c1573d6000803e3d6000fd5b50506006546040516370a0823160e01b8152306004820152600093508592506001600160a01b03909116906370a0823190602401602060405180830381865afa158015614212573d6000803e3d6000fd5b505050506040513d601f19601f820116820180604052508101906142369190614a1a565b6142409190614bc1565b9050600084601754836142539190614a7f565b61425d9190614bad565b9050600085601854846142709190614a7f565b61427a9190614bad565b601b54909150600090600160a01b900460ff16801561429b57506000601a54115b6142a65760006142bf565b86601a54856142b59190614a7f565b6142bf9190614bad565b9050600081836142cf8688614bc1565b6142d99190614bc1565b6142e39190614bc1565b9050831561436657600654601b5460405163a9059cbb60e01b81526001600160a01b0391821660048201526024810187905291169063a9059cbb906044016020604051808303816000875af1158015614340573d6000803e3d6000fd5b505050506040513d601f19601f820116820180604052508101906143649190614a96565b505b82156143e55760065460405163a9059cbb60e01b815261dead6004820152602481018590526001600160a01b039091169063a9059cbb906044016020604051808303816000875af11580156143bf573d6000803e3d6000fd5b505050506040513d601f19601f820116820180604052508101906143e39190614a96565b505b81156143f4576143f482613215565b8015613f8757613f87816132f1565b6001600160a01b03831661442e5780600260008282546144239190614ab3565b909155506144a09050565b6001600160a01b038316600090815260208190526040902054818110156144815760405163391434e360e21b81526001600160a01b0385166004820152602481018290526044810183905260640161128f565b6001600160a01b03841660009081526020819052604090209082900390555b6001600160a01b0382166144bc576002805482900390556144db565b6001600160a01b03821660009081526020819052604090208054820190555b816001600160a01b0316836001600160a01b03167fddf252ad1be2c89b69c2b068fc378daa952ba7f163c4a11628f55a4df523b3ef8360405161452091815260200190565b60405180910390a3505050565b601e546001600160a01b0384161580159061455157506001600160a01b0384163014155b1561461b576001600160a01b0384166000908152601c6020526040812054670de0b6b3a76400008361458288612026565b61458c9190614aec565b6145969190614b32565b6145a09190614b60565b905060008113156145d9576001600160a01b0385166000908152601d6020526040812080548392906145d3908490614ab3565b90915550505b670de0b6b3a7640000826145ec87612026565b6145f69190614aec565b6146009190614b32565b6001600160a01b0386166000908152601c6020526040902055505b6001600160a01b0383161580159061463c57506001600160a01b0383163014155b1561139e576001600160a01b0383166000908152601c6020526040812054670de0b6b3a76400008361466d87612026565b6146779190614aec565b6146819190614b32565b61468b9190614b60565b905060008113156146c4576001600160a01b0384166000908152601d6020526040812080548392906146be908490614ab3565b90915550505b670de0b6b3a7640000826146d786612026565b6146e19190614aec565b6146eb9190614b32565b6001600160a01b0385166000908152601c60205260409020555050505050565b801515811461195157600080fd5b60006020828403121561472b57600080fd5b81356147368161470b565b9392505050565b600060208083528351808285015260005b8181101561476a5785810183015185820160400152820161474e565b506000604082860101526040601f19601f8301168501019250505092915050565b6001600160a01b038116811461195157600080fd5b600080604083850312156147b357600080fd5b82356147be8161478b565b946020939093013593505050565b6000602082840312156147de57600080fd5b81356147368161478b565b6000806000604084860312156147fe57600080fd5b833567ffffffffffffffff8082111561481657600080fd5b818601915086601f83011261482a57600080fd5b81358181111561483957600080fd5b8760208260051b850101111561484e57600080fd5b602092830195509350508401356148648161470b565b809150509250925092565b60006020828403121561488157600080fd5b5035919050565b60008060006060848603121561489d57600080fd5b83356148a88161478b565b925060208401356148b88161478b565b929592945050506040919091013590565b634e487b7160e01b600052602160045260246000fd5b60208101600283106148f3576148f36148c9565b91905290565b60208101600383106148f3576148f36148c9565b6000806040838503121561492057600080fd5b823561492b8161478b565b9150602083013561493b8161470b565b809150509250929050565b6000806040838503121561495957600080fd5b82356149648161478b565b9150602083013561493b8161478b565b600181811c9082168061498857607f821691505b6020821081036149a857634e487b7160e01b600052602260045260246000fd5b50919050565b6020808252600d908201526c4e6f742055534454206d6f646560981b604082015260600190565b634e487b7160e01b600052603260045260246000fd5b634e487b7160e01b600052601160045260246000fd5b600060018201614a1357614a136149eb565b5060010190565b600060208284031215614a2c57600080fd5b5051919050565b6020808252600b908201526a109b1858dadb1a5cdd195960aa1b604082015260600190565b6020808252600d908201526c496e76616c696420736861726560981b604082015260600190565b8082028115828204841417611244576112446149eb565b600060208284031215614aa857600080fd5b81516147368161470b565b80820180821115611244576112446149eb565b6020808252600c908201526b053756d20213d2031303030360a41b604082015260600190565b80820260008212600160ff1b84141615614b0857614b086149eb565b8181058314821517611244576112446149eb565b634e487b7160e01b600052601260045260246000fd5b600082614b4157614b41614b1c565b600160ff1b821460001984141615614b5b57614b5b6149eb565b500590565b8181036000831280158383131683831282161715614b8057614b806149eb565b5092915050565b6020808252600c908201526b0a8c2f040e8dede40d0d2ced60a31b604082015260600190565b600082614bbc57614bbc614b1c565b500490565b81810381811115611244576112446149eb565b8082018281126000831280158216821582161715614bf457614bf46149eb565b505092915050565b600080600060608486031215614c1157600080fd5b8351925060208401519150604084015190509250925092565b80516001600160701b0381168114614c4157600080fd5b919050565b600080600060608486031215614c5b57600080fd5b614c6484614c2a565b9250614c7260208501614c2a565b9150604084015163ffffffff8116811461486457600080fd5b600060208284031215614c9d57600080fd5b81516147368161478b565b600060a082018783526020878185015260a0604085015281875180845260c086019150828901935060005b81811015614cf85784516001600160a01b031683529383019391830191600101614cd3565b50506001600160a01b0396909616606085015250505060800152939250505056fe9b779b17422d0df92223018b32b4d1fa46e071723d6817e2486d003becc55f00a26469706673582212203577b42adfeed5789ff9c9c6aa9170bd0c55783485a986582edd40e56a39c92e64736f6c63430008140033",
  "linkReferences": {},
  "deployedLinkReferences": {}
}